{
  "contractName": "ProductAuth",
  "abi": [
    {
      "inputs": [
        {
          "internalType": "string",
          "name": "",
          "type": "string"
        }
      ],
      "name": "products",
      "outputs": [
        {
          "internalType": "string",
          "name": "name",
          "type": "string"
        },
        {
          "internalType": "string",
          "name": "manufacturer",
          "type": "string"
        },
        {
          "internalType": "bool",
          "name": "isValid",
          "type": "bool"
        }
      ],
      "stateMutability": "view",
      "type": "function",
      "constant": true
    },
    {
      "inputs": [
        {
          "internalType": "string",
          "name": "_id",
          "type": "string"
        },
        {
          "internalType": "string",
          "name": "_name",
          "type": "string"
        },
        {
          "internalType": "string",
          "name": "_manufacturer",
          "type": "string"
        }
      ],
      "name": "addProduct",
      "outputs": [],
      "stateMutability": "nonpayable",
      "type": "function"
    },
    {
      "inputs": [
        {
          "internalType": "string",
          "name": "_id",
          "type": "string"
        }
      ],
      "name": "verifyProduct",
      "outputs": [
        {
          "internalType": "string",
          "name": "",
          "type": "string"
        },
        {
          "internalType": "string",
          "name": "",
          "type": "string"
        },
        {
          "internalType": "bool",
          "name": "",
          "type": "bool"
        }
      ],
      "stateMutability": "view",
      "type": "function",
      "constant": true
    }
  ],
  "bytecode": "0x608060405234801561001057600080fd5b50610706806100206000396000f3fe608060405234801561001057600080fd5b50600436106100415760003560e01c80630186a423146100465780630e34b00e1461007157806392efc45314610086575b600080fd5b61005961005436600461050a565b610099565b60405161006893929190610617565b60405180910390f35b61008461007f366004610547565b6101d9565b005b61005961009436600461050a565b610267565b80516020818301810180516000825292820191909301209152805481906100bf9061067f565b80601f01602080910402602001604051908101604052809291908181526020018280546100eb9061067f565b80156101385780601f1061010d57610100808354040283529160200191610138565b820191906000526020600020905b81548152906001019060200180831161011b57829003601f168201915b50505050509080600101805461014d9061067f565b80601f01602080910402602001604051908101604052809291908181526020018280546101799061067f565b80156101c65780601f1061019b576101008083540402835291602001916101c6565b820191906000526020600020905b8154815290600101906020018083116101a957829003601f168201915b5050506002909301549192505060ff1683565b604080516060810182528381526020810183905260018183015290516000906102039086906105fb565b9081526020016040518091039020600082015181600001908051906020019061022d9291906103e4565b50602082810151805161024692600185019201906103e4565b50604091909101516002909101805460ff1916911515919091179055505050565b60608060008060008560405161027d91906105fb565b90815260200160405180910390206040518060600160405290816000820180546102a69061067f565b80601f01602080910402602001604051908101604052809291908181526020018280546102d29061067f565b801561031f5780601f106102f45761010080835404028352916020019161031f565b820191906000526020600020905b81548152906001019060200180831161030257829003601f168201915b505050505081526020016001820180546103389061067f565b80601f01602080910402602001604051908101604052809291908181526020018280546103649061067f565b80156103b15780601f10610386576101008083540402835291602001916103b1565b820191906000526020600020905b81548152906001019060200180831161039457829003601f168201915b50505091835250506002919091015460ff1615156020918201528151908201516040909201519097919650945092505050565b8280546103f09061067f565b90600052602060002090601f0160209004810192826104125760008555610458565b82601f1061042b57805160ff1916838001178555610458565b82800160010185558215610458579182015b8281111561045857825182559160200191906001019061043d565b50610464929150610468565b5090565b5b808211156104645760008155600101610469565b600082601f83011261048e57600080fd5b813567ffffffffffffffff808211156104a9576104a96106ba565b604051601f8301601f19908116603f011681019082821181831017156104d1576104d16106ba565b816040528381528660208588010111156104ea57600080fd5b836020870160208301376000602085830101528094505050505092915050565b60006020828403121561051c57600080fd5b813567ffffffffffffffff81111561053357600080fd5b61053f8482850161047d565b949350505050565b60008060006060848603121561055c57600080fd5b833567ffffffffffffffff8082111561057457600080fd5b6105808783880161047d565b9450602086013591508082111561059657600080fd5b6105a28783880161047d565b935060408601359150808211156105b857600080fd5b506105c58682870161047d565b9150509250925092565b600081518084526105e781602086016020860161064f565b601f01601f19169290920160200192915050565b6000825161060d81846020870161064f565b9190910192915050565b60608152600061062a60608301866105cf565b828103602084015261063c81866105cf565b9150508215156040830152949350505050565b60005b8381101561066a578181015183820152602001610652565b83811115610679576000848401525b50505050565b600181811c9082168061069357607f821691505b602082108114156106b457634e487b7160e01b600052602260045260246000fd5b50919050565b634e487b7160e01b600052604160045260246000fdfea2646970667358221220ede40384115f3204facc7eca26fb904c95c44f2628b82c0b7e9c6f9e0756798064736f6c63430008070033",
  "immutableReferences": {},
  "source": "// SPDX-License-Identifier: MIT\r\npragma solidity 0.8.7;\r\n\r\ncontract ProductAuth {\r\n\r\n    struct Product {\r\n        string name;\r\n        string manufacturer;\r\n        bool isValid;\r\n    }\r\n\r\n    mapping(string => Product) public products;\r\n\r\n    // ✅ Anyone can add product now\r\n    function addProduct(\r\n        string memory _id,\r\n        string memory _name,\r\n        string memory _manufacturer\r\n    ) public {\r\n        products[_id] = Product(_name, _manufacturer, true);\r\n    }\r\n\r\n    function verifyProduct(string memory _id)\r\n        public\r\n        view\r\n        returns (string memory, string memory, bool)\r\n    {\r\n        Product memory p = products[_id];\r\n        return (p.name, p.manufacturer, p.isValid);\r\n    }\r\n}",
  "sourcePath": "D:\\mydapp\\contracts\\ProductAuth.sol",
  "compiler": {
    "name": "solc",
    "version": "0.8.7+commit.e28d00a7.Emscripten.clang"
  },
  "schemaVersion": "3.4.16",
  "updatedAt": "2026-03-21T09:08:40.503Z",
  "networkType": "ethereum",
  "devdoc": {
    "kind": "dev",
    "methods": {},
    "version": 1
  },
  "userdoc": {
    "kind": "user",
    "methods": {},
    "version": 1
  }
}